{
  "contractName": "SpaceToken",
  "abi": [
    {
      "inputs": [
        {
          "internalType": "address",
          "name": "_address",
          "type": "address"
        }
      ],
      "stateMutability": "nonpayable",
      "type": "constructor"
    },
    {
      "anonymous": false,
      "inputs": [
        {
          "indexed": false,
          "internalType": "address",
          "name": "owner",
          "type": "address"
        },
        {
          "indexed": false,
          "internalType": "address",
          "name": "spender",
          "type": "address"
        },
        {
          "indexed": false,
          "internalType": "uint256",
          "name": "value",
          "type": "uint256"
        }
      ],
      "name": "Approval",
      "type": "event"
    },
    {
      "anonymous": false,
      "inputs": [
        {
          "indexed": false,
          "internalType": "address",
          "name": "from",
          "type": "address"
        },
        {
          "indexed": false,
          "internalType": "address",
          "name": "to",
          "type": "address"
        },
        {
          "indexed": false,
          "internalType": "uint256",
          "name": "value",
          "type": "uint256"
        }
      ],
      "name": "Transfer",
      "type": "event"
    },
    {
      "inputs": [],
      "name": "decimals",
      "outputs": [
        {
          "internalType": "uint256",
          "name": "",
          "type": "uint256"
        }
      ],
      "stateMutability": "view",
      "type": "function",
      "constant": true
    },
    {
      "inputs": [],
      "name": "name",
      "outputs": [
        {
          "internalType": "string",
          "name": "",
          "type": "string"
        }
      ],
      "stateMutability": "view",
      "type": "function",
      "constant": true
    },
    {
      "inputs": [],
      "name": "symbol",
      "outputs": [
        {
          "internalType": "string",
          "name": "",
          "type": "string"
        }
      ],
      "stateMutability": "view",
      "type": "function",
      "constant": true
    },
    {
      "inputs": [],
      "name": "totalSupply",
      "outputs": [
        {
          "internalType": "uint256",
          "name": "",
          "type": "uint256"
        }
      ],
      "stateMutability": "view",
      "type": "function",
      "constant": true
    },
    {
      "inputs": [
        {
          "internalType": "address",
          "name": "_address",
          "type": "address"
        }
      ],
      "name": "balanceOf",
      "outputs": [
        {
          "internalType": "uint256",
          "name": "",
          "type": "uint256"
        }
      ],
      "stateMutability": "view",
      "type": "function",
      "constant": true
    },
    {
      "inputs": [
        {
          "internalType": "address",
          "name": "_to",
          "type": "address"
        },
        {
          "internalType": "uint256",
          "name": "_value",
          "type": "uint256"
        }
      ],
      "name": "transfer",
      "outputs": [
        {
          "internalType": "bool",
          "name": "success",
          "type": "bool"
        }
      ],
      "stateMutability": "nonpayable",
      "type": "function"
    },
    {
      "inputs": [
        {
          "internalType": "address",
          "name": "_spender",
          "type": "address"
        },
        {
          "internalType": "uint256",
          "name": "_value",
          "type": "uint256"
        }
      ],
      "name": "approve",
      "outputs": [
        {
          "internalType": "bool",
          "name": "success",
          "type": "bool"
        }
      ],
      "stateMutability": "nonpayable",
      "type": "function"
    },
    {
      "inputs": [
        {
          "internalType": "address",
          "name": "_owner",
          "type": "address"
        },
        {
          "internalType": "address",
          "name": "_spender",
          "type": "address"
        }
      ],
      "name": "getTokensApproved",
      "outputs": [
        {
          "internalType": "uint256",
          "name": "",
          "type": "uint256"
        }
      ],
      "stateMutability": "view",
      "type": "function",
      "constant": true
    },
    {
      "inputs": [
        {
          "internalType": "address",
          "name": "_from",
          "type": "address"
        },
        {
          "internalType": "address",
          "name": "_to",
          "type": "address"
        },
        {
          "internalType": "uint256",
          "name": "_value",
          "type": "uint256"
        }
      ],
      "name": "transferFrom",
      "outputs": [
        {
          "internalType": "bool",
          "name": "success",
          "type": "bool"
        }
      ],
      "stateMutability": "nonpayable",
      "type": "function"
    }
  ],
  "bytecode": "0x60806040523480156200001157600080fd5b5060405162000d5a38038062000d5a8339818101604052810190620000379190620000da565b6101f46000808373ffffffffffffffffffffffffffffffffffffffff1673ffffffffffffffffffffffffffffffffffffffff168152602001908152602001600020819055507fddf252ad1be2c89b69c2b068fc378daa952ba7f163c4a11628f55a4df523b3ef6000826101f4604051620000b49392919062000128565b60405180910390a150620001bd565b600081519050620000d481620001a3565b92915050565b600060208284031215620000ed57600080fd5b6000620000fd84828501620000c3565b91505092915050565b620001118162000165565b82525050565b620001228162000199565b82525050565b60006060820190506200013f600083018662000106565b6200014e602083018562000106565b6200015d604083018462000117565b949350505050565b6000620001728262000179565b9050919050565b600073ffffffffffffffffffffffffffffffffffffffff82169050919050565b6000819050919050565b620001ae8162000165565b8114620001ba57600080fd5b50565b610b8d80620001cd6000396000f3fe608060405234801561001057600080fd5b50600436106100935760003560e01c8063313ce56711610066578063313ce56714610134578063522ed9901461015257806370a082311461018257806395d89b41146101b2578063a9059cbb146101d057610093565b806306fdde0314610098578063095ea7b3146100b657806318160ddd146100e657806323b872dd14610104575b600080fd5b6100a0610200565b6040516100ad919061098b565b60405180910390f35b6100d060048036038101906100cb9190610897565b610239565b6040516100dd9190610970565b60405180910390f35b6100ee61028b565b6040516100fb91906109ad565b60405180910390f35b61011e60048036038101906101199190610848565b610291565b60405161012b9190610970565b60405180910390f35b61013c610383565b60405161014991906109ad565b60405180910390f35b61016c6004803603810190610167919061080c565b610388565b60405161017991906109ad565b60405180910390f35b61019c600480360381019061019791906107e3565b61040f565b6040516101a991906109ad565b60405180910390f35b6101ba610457565b6040516101c7919061098b565b60405180910390f35b6101ea60048036038101906101e59190610897565b610490565b6040516101f79190610970565b60405180910390f35b6040518060400160405280600581526020017f537061636500000000000000000000000000000000000000000000000000000081525081565b60006102463384846104e2565b7f8c5be1e5ebec7d5bd14f71427d1e84f3dd0314c0f7b2291e5b200ac8c7c3b92533848460405161027993929190610939565b60405180910390a16001905092915050565b6101f481565b6000803390506000600160008773ffffffffffffffffffffffffffffffffffffffff1673ffffffffffffffffffffffffffffffffffffffff16815260200190815260200160002060008373ffffffffffffffffffffffffffffffffffffffff1673ffffffffffffffffffffffffffffffffffffffff1681526020019081526020016000205490508381101561032557600080fd5b6103308686866105b3565b61033b868386610721565b7fddf252ad1be2c89b69c2b068fc378daa952ba7f163c4a11628f55a4df523b3ef86868660405161036e93929190610939565b60405180910390a16001925050509392505050565b601281565b6000600160008473ffffffffffffffffffffffffffffffffffffffff1673ffffffffffffffffffffffffffffffffffffffff16815260200190815260200160002060008373ffffffffffffffffffffffffffffffffffffffff1673ffffffffffffffffffffffffffffffffffffffff16815260200190815260200160002054905092915050565b60008060008373ffffffffffffffffffffffffffffffffffffffff1673ffffffffffffffffffffffffffffffffffffffff168152602001908152602001600020549050919050565b6040518060400160405280600581526020017f535041434500000000000000000000000000000000000000000000000000000081525081565b600061049d3384846105b3565b7fddf252ad1be2c89b69c2b068fc378daa952ba7f163c4a11628f55a4df523b3ef3384846040516104d093929190610939565b60405180910390a16001905092915050565b806000808573ffffffffffffffffffffffffffffffffffffffff1673ffffffffffffffffffffffffffffffffffffffff16815260200190815260200160002054101561052d57600080fd5b80600160008573ffffffffffffffffffffffffffffffffffffffff1673ffffffffffffffffffffffffffffffffffffffff16815260200190815260200160002060008473ffffffffffffffffffffffffffffffffffffffff1673ffffffffffffffffffffffffffffffffffffffff16815260200190815260200160002081905550505050565b600073ffffffffffffffffffffffffffffffffffffffff168373ffffffffffffffffffffffffffffffffffffffff1614156105ed57600080fd5b600073ffffffffffffffffffffffffffffffffffffffff168273ffffffffffffffffffffffffffffffffffffffff16141561062757600080fd5b806000808573ffffffffffffffffffffffffffffffffffffffff1673ffffffffffffffffffffffffffffffffffffffff16815260200190815260200160002054101561067257600080fd5b806000808573ffffffffffffffffffffffffffffffffffffffff1673ffffffffffffffffffffffffffffffffffffffff16815260200190815260200160002060008282546106c09190610a3a565b92505081905550806000808473ffffffffffffffffffffffffffffffffffffffff1673ffffffffffffffffffffffffffffffffffffffff168152602001908152602001600020600082825461071591906109e4565b92505081905550505050565b80600160008573ffffffffffffffffffffffffffffffffffffffff1673ffffffffffffffffffffffffffffffffffffffff16815260200190815260200160002060008473ffffffffffffffffffffffffffffffffffffffff1673ffffffffffffffffffffffffffffffffffffffff16815260200190815260200160002060008282546107ad9190610a3a565b92505081905550505050565b6000813590506107c881610b29565b92915050565b6000813590506107dd81610b40565b92915050565b6000602082840312156107f557600080fd5b6000610803848285016107b9565b91505092915050565b6000806040838503121561081f57600080fd5b600061082d858286016107b9565b925050602061083e858286016107b9565b9150509250929050565b60008060006060848603121561085d57600080fd5b600061086b868287016107b9565b935050602061087c868287016107b9565b925050604061088d868287016107ce565b9150509250925092565b600080604083850312156108aa57600080fd5b60006108b8858286016107b9565b92505060206108c9858286016107ce565b9150509250929050565b6108dc81610a6e565b82525050565b6108eb81610a80565b82525050565b60006108fc826109c8565b61090681856109d3565b9350610916818560208601610ab6565b61091f81610b18565b840191505092915050565b61093381610aac565b82525050565b600060608201905061094e60008301866108d3565b61095b60208301856108d3565b610968604083018461092a565b949350505050565b600060208201905061098560008301846108e2565b92915050565b600060208201905081810360008301526109a581846108f1565b905092915050565b60006020820190506109c2600083018461092a565b92915050565b600081519050919050565b600082825260208201905092915050565b60006109ef82610aac565b91506109fa83610aac565b9250827fffffffffffffffffffffffffffffffffffffffffffffffffffffffffffffffff03821115610a2f57610a2e610ae9565b5b828201905092915050565b6000610a4582610aac565b9150610a5083610aac565b925082821015610a6357610a62610ae9565b5b828203905092915050565b6000610a7982610a8c565b9050919050565b60008115159050919050565b600073ffffffffffffffffffffffffffffffffffffffff82169050919050565b6000819050919050565b60005b83811015610ad4578082015181840152602081019050610ab9565b83811115610ae3576000848401525b50505050565b7f4e487b7100000000000000000000000000000000000000000000000000000000600052601160045260246000fd5b6000601f19601f8301169050919050565b610b3281610a6e565b8114610b3d57600080fd5b50565b610b4981610aac565b8114610b5457600080fd5b5056fea264697066735822122029572298278d20a325e56b8c895b95826805fc26f2c0dddf80290f09ba6d5c9f64736f6c63430008030033",
  "immutableReferences": {},
  "source": "// SPDX-License-Identifier: MIT\npragma solidity >0.5.0;\npragma experimental ABIEncoderV2;\n\ncontract SpaceToken {\n\t// name\n\tstring public constant name = \"Space\";\n\n\t// symbol\n\tstring public constant symbol = \"SPACE\";\n\n\t// 18 decimals\n\tuint256 public constant decimals = 18;\n\n\t// 500 SAFEX tokens\n\tuint256 public constant totalSupply = 500;\n\n\t// token balance of each address\n\tmapping (address => uint256) internal _balances;\n\n\t// allowance no. of tokens on behalf of other\n\tmapping (address => mapping (address => uint256)) internal _allowances;\n\n\t// transfer event\n\tevent Transfer(address from, address to, uint256 value);\n\n\t// approval event\n\tevent Approval(address owner, address spender, uint256 value);\n\n\t// allocate all tokens to admin on deployment\n\tconstructor(address _address) {\n\t\t_balances[_address] = totalSupply;\n\t\temit Transfer(address(0), _address, totalSupply);\n\t}\n\n\t// token balance of each address\n\tfunction balanceOf(address _address) public view returns (uint256) {\n\t\treturn _balances[_address];\n\t}\n\n\t// _transferTokens\n\tfunction _transferTokens(address _from, address _to, uint256 _value) internal {\n\t\trequire(_from != address(0));\n\t\trequire(_to != address(0));\n\t\trequire(_balances[_from] >= _value);\n\t\t_balances[_from] -= _value;\n\t\t_balances[_to] += _value;\n\t}\n\n\t// transfer\n\tfunction transfer(address _to, uint256 _value) public returns (bool success) {\n\t\t_transferTokens(msg.sender, _to, _value);\n\t\temit Transfer(msg.sender, _to, _value);\n\t\treturn true;\n\t}\n\n\t// _approveTokens\n\tfunction _approveTokens(address _owner, address _spender, uint256 _value) internal {\n    require(_balances[_owner] >= _value);\n\t\t_allowances[_owner][_spender] = _value;\n\t}\n\n\t// approve\n\tfunction approve(address _spender, uint256 _value) public returns (bool success) {\n\t\t_approveTokens(msg.sender, _spender, _value);\n\t\temit Approval(msg.sender, _spender, _value);\n    return true;\n\t}\n\n\t// getTokensApproved\n\tfunction getTokensApproved(address _owner, address _spender) public view returns (uint256) {\n\t\treturn _allowances[_owner][_spender];\n\t}\n\n\t// _deductApprovedTokens\n\tfunction _deductApprovedTokens(address _owner, address _spender, uint256 _value) internal {\n\t\t_allowances[_owner][_spender] -= _value;\n\t}\n\n\t// transferFrom\n\tfunction transferFrom(address _from, address _to, uint256 _value) public returns (bool success) {\n\t\taddress spender = msg.sender;\n\t\tuint256 spenderAllowance = _allowances[_from][spender];\n\t\trequire(spenderAllowance >= _value);\n\t\t_transferTokens(_from, _to, _value);\n\t\t_deductApprovedTokens(_from, spender, _value);\n\t\temit Transfer(_from, _to, _value);\n\t\treturn true;\n\t}\n}",
  "sourcePath": "/home/pavansoratur/space-token/contracts/SpaceToken.sol",
  "compiler": {
    "name": "solc",
    "version": "0.8.3+commit.8d00100c.Emscripten.clang"
  },
  "schemaVersion": "3.3.4",
  "updatedAt": "2021-03-29T11:22:26.837Z",
  "networkType": "ethereum",
  "devdoc": {
    "kind": "dev",
    "methods": {},
    "version": 1
  },
  "userdoc": {
    "kind": "user",
    "methods": {},
    "version": 1
  }
}